:020000040800F2
:1000000000000220E1140008F1130008F9130008B1
:100010000114000809140008111400080000000071
:10002000000000000000000000000000191400089B
:1000300027140008000000003514000843140008CD
:100040003115000831150008311500083115000878
:100050003115000831150008311500083115000868
:100060003115000831150008311500083115000858
:100070003115000831150008311500083115000848
:100080003115000831150008311500080000000086
:100090000000000000000000000000003115000812
:1000A0003115000831150008311500083115000818
:1000B0003115000831150008311500083115000808
:1000C00031150008311500083115000831150008F8
:1000D0003115000831150008311500080000000036
:1000E0003115000831150008311500080000000026
:1000F00000000000000000000000000031150008B2
:100100000000000031150008311500083115000805
:1001100000000000000000000000000000000000DF
:100120003115000831150008311500083115000897
:100130003115000800000000000000000000000071
:100140000000000000000000000000003115000861
:100150003115000831150008311500083115000867
:1001600031150008311500080000000000000000F3
:10017000000000000000000000000000000000007F
:100180000000000031150008000000000000000021
:080190003115000831150008CB
:1001A00010B5054C237833B9044B13B10448AFF3B1
:1001B00000800123237010BD5C00002000000000BF
:1001C0007043000808B5034B1BB103490348AFF364
:1001D000008008BD0000000060000020704300089F
:1001E00001F0FF01102A2BDB10F0070F08D010F8E8
:1001F000013B013A8B422DD010F0070F42B3F6D1EC
:10020000F0B441EA012141EA014122F007047FF004
:1002100000070023F0E80256083C85EA010586EA5B
:10022000010685FA47F5A3FA87F586FA47F6A5FA97
:1002300087F68EB9EED1F0BC01F0FF0102F00702A3
:1002400032B110F8013B013A83EA010313B1F8D14E
:100250000020704701387047002D06BF354603382F
:10026000073815F0010F07D1013015F4807F02BF68
:10027000013015F4C03F0130F0BC0138704700BFB9
:1002800053B94AB9002908BF00281CBF4FF0FF31FD
:100290004FF0FF3000F088B9ADF1080C6DE904CEE5
:1002A00000F006F8DDF804E0DDE9022304B0704751
:1002B0002DE9F047089D8E4604468846002B4AD11A
:1002C0008A42174662D9B2FA82F64EB1C6F12003CD
:1002D00001FA06F820FA03F3B74043EA0808B440ED
:1002E0004FEA174E1FFA87FCB8FBFEF1230C0EFBFA
:1002F000118843EA084301FB0CF29A4209D9FB1822
:1003000001F1FF3080F0EA809A4240F2E780023942
:100310003B449A1AA3B2B2FBFEF00EFB102243EA52
:10032000024300FB0CFC9C4509D9FB1800F1FF328D
:1003300080F0D6809C4540F2D3803B44023840EAAE
:100340000140A3EB0C0300211DB1F3400022C5E9DD
:100350000032BDE8F0878B4205D90DB1C5E9000137
:1003600000210846F5E7B3FA83F1002946D1734529
:1003700002D3824200F20581841A6EEB030201204F
:100380009046002DE5D0C5E90048E2E7002A00F0DC
:100390009080B2FA82F6002E40F0A4808A1A030CF4
:1003A0004FEA174E80B2BCB20121B2FBFEFC0EFB3D
:1003B0001C2243EA024304FB0CF29A4207D9FB18C1
:1003C0000CF1FF3802D29A4200F2E080C4469B1A38
:1003D000B3FBFEF20EFB123340EA034302FB04F4CC
:1003E0009C4207D9FB1802F1FF3002D29C4200F276
:1003F000CA8002461B1B42EA0C40A5E7C1F1200659
:100400008B4022FA06F71F430EFA01F420FA06F396
:100410002EFA06FE4FEA1749234300FA01F81FFAA5
:1004200087FCBEFBF9F01C0C09FB10EE44EA0E44FD
:1004300000FB0CFEA64502FA01F209D93C1900F1B5
:10044000FF3A80F09C80A64540F2998002383C44F7
:10045000A4EB0E041FFA83FEB4FBF9F309FB13446B
:100460004EEA044403FB0CFCA44508D93C1903F1F3
:10047000FF3E80F08280A4457FD9023B3C4443EAA2
:100480000040A4EB0C04A0FB02EC64457346E1467B
:1004900062D35FD05DB1B8EB030264EB090404FAE8
:1004A00006F622FA01F31E43CC40C5E900640021A0
:1004B0004FE7B1FBF2FC010C41EA0E4180B240EA89
:1004C00001423B4638463C46B846BE462026B1FB74
:1004D000F7F1A2EB080241EA0C4166E7014618E792
:1004E00010462CE7C6F120022EFA02F3B740B140C5
:1004F00020FA02F24FEA174E0A43B3FBFEF8BCB2F1
:100500000EFB1833110C41EA034108FB04F9B0401B
:1005100089454FEA104380B23ED9791808F1FF3C73
:1005200001D289451FD8A1EB0901B1FBFEF909FBF6
:1005300004F80EFB191192B242EA0142424529D257
:10054000BA1809F1FF31C4D24245C2D2A9F1020161
:100550003A44BEE7F0459DD2BEEB02036CEB070CBC
:100560000138E14696E7A7EB09094944A8F1020CD6
:10057000B1FBFEF909FB04F8DBE773467FE7504661
:1005800066E70846FDE63B44023A33E7ACF1020C6D
:100590003B441CE749469CE7A1EB0901C446B1FB7B
:1005A000FEF909FB04F8C4E7704700BF80B500AF4F
:1005B00000F012F80346002B01D100230AE000F0FE
:1005C00017F8034683F00103DBB2002B01D00023B0
:1005D00000E00123184680BD80B500AF0721034825
:1005E00000F040F80346184680BD00BF8C43000869
:1005F00080B500AF0221034800F01EF903461846FB
:1006000080BD00BFC443000880B500AFFFF7CEFF38
:10061000034683F00103DBB2002B12D100F09AFBFA
:10062000002000F0AFF9012000F0ACF9002000F04C
:10063000EBFA012000F0E8FA0021002000F062F857
:1006400000E000BF80BD000080B500AF044902207B
:1006500000F0D8FB0121042000F054F800BFF9E7B6
:100660008843000880B485B000AF78600B46FB700B
:100670007B68002B01D1002339E0FB78002B02D0EE
:10068000FB78072B01D9002331E01C4AFB7813705B
:100690000023FB7325E0FB7BDB007A6813441B68B7
:1006A000002B01D1002322E0FB7BDB007A68D0180D
:1006B000FA7B134913465B0013449B000B4402462C
:1006C00092E8030083E80300FA7B0D4913465B00C0
:1006D00013449B000B44083301221A70FB7B013347
:1006E000FB73064B1B78FA7B9A42D4D3012318463E
:1006F0001437BD465DF8047B704700BFCC00002076
:100700007800002080B584B000AF03460A46FB7134
:100710001346BB71FB79184600F034F8034683F0AA
:100720000103DBB2002B01D0002325E0BB79002BB5
:1007300006D0FB79184600F04DF80346FB7305E040
:10074000FB79184600F05CF80346FB73FA790C4914
:1007500013465B0013449B000B441868FA79084960
:1007600013465B0013449B000B4404331B88FA7B45
:10077000194601F041FA012318461037BD4680BDE5
:100780007800002080B483B000AF0346FB710F4BAC
:100790001B78FA799A4201D3002310E0FA790C49C8
:1007A00013465B0013449B000B4408331B7883F013
:1007B0000103DBB2002B01D0002300E00123184627
:1007C0000C37BD465DF8047B704700BFCC000020AD
:1007D0007800002080B483B000AF0346FB71FA7943
:1007E000064913465B0013449B000B4406331B78F9
:1007F00018460C37BD465DF8047B70477800002032
:1008000080B483B000AF0346FB71FA7909491346FF
:100810005B0013449B000B4406331B78012B01D172
:10082000002300E0012318460C37BD465DF8047B29
:10083000704700BF78000020B0B485B000AF78608A
:100840000B46FB707B68002B01D1002348E0FB784E
:10085000002B02D0FB78022B01D9002340E0234A71
:10086000FB7813700023FB7334E0FA7B1346DB0044
:100870009B1A9B001A467B689918FB7B1C4A5B01FC
:1008800013441C460D460FCD0FC495E8070084E8BD
:100890000700FA7B1346DB009B1A9B001A467B6815
:1008A0001A44FB7B918A124A5B0113441C330A46AB
:1008B0001A80FB7B0E4A5B0113441E3301221A701F
:1008C000FB7B0B4A5B0113441F3300221A70FB7B36
:1008D0000133FB73054B1B78FA7B9A42C5D3012386
:1008E00018461437BD46B0BC704700BF1001002049
:1008F000D000002080B483B000AF0346FB71074BEB
:100900001B78FA799A4234BF01230023DBB21846E0
:100910000C37BD465DF8047B704700BF1001002016
:1009200080B483B000AF03460A46FB711346BB8018
:10093000FB79134A5B01134412331B88BA889A422D
:1009400006D2FB790E4A5B01134412331B88BB802D
:10095000FB790B4A5B01134416331B88BA889A4211
:1009600006D9FB79064A5B01134416331B88BB800A
:10097000BB8818460C37BD465DF8047B704700BF46
:10098000D000002080B582B000AF0346FB71FB7938
:100990001846FFF7AFFF034683F00103DBB2002BDD
:1009A00001D0002336E0FB791C4A5B0113441E335F
:1009B0001B7883F00103DBB2002B01D0002329E078
:1009C000FB79164A5B0113441F331B78002B01D0BF
:1009D00000231FE0FB79114A5B0113441A68FB797D
:1009E0000E495B010B4404331B681946104601F0A5
:1009F000C5FD0346002B01D000230BE0FB79074A1D
:100A00005B0113441F3301221A70FB79184600F072
:100A1000FBF8034618460837BD4680BDD0000020CD
:100A200080B584B000AF03460A46FB711346BB7124
:100A3000FB791846FFF75EFF034683F00103DBB244
:100A4000002B01D0002340E0FB79224A5B011344D4
:100A50001E331B7883F00103DBB2002B01D000238F
:100A600033E0FB791B4A5B0113441F331B7883F08F
:100A70000103DBB2002B01D0002326E0BB799AB240
:100A8000FB7911461846FFF74BFF0346FB81FA89B5
:100A9000FB791146184600F0DBF80346BB81BA89A2
:100AA000FB791146184600F017F8034683F001035E
:100AB000DBB2002B01D0002307E0FB79054A5B0184
:100AC00013441C33FA891A80012318461037BD4697
:100AD00080BD00BFD000002080B584B000AF0346C9
:100AE0000A46FB711346BB80FB791846FFF702FFED
:100AF000034683F00103DBB2002B01D000237CE02E
:100B0000FB79404A5B0113441E331B7883F00103D9
:100B1000DBB2002B01D000236FE0FB79394A5B0187
:100B200013441F331B7883F00103DBB2002B01D089
:100B3000002362E0FB79334A5B0113440C331B88CA
:100B4000BA889A4206D2FB792E4A5B0113440C33D1
:100B50001B88BB80FB792B4A5B01134410331B8835
:100B6000BA889A4206D9FB79264A5B0113441033AE
:100B70001B88BB80BA88FB791146184600F0B0F894
:100B8000F860FB791F4A5B01134404331B68002B98
:100B900008D1FB791B4A5B0113441B681B68FA6888
:100BA0005A6329E0FB79174A5B01134404331B683D
:100BB000042B08D1FB79134A5B0113441B681A68A4
:100BC000FB68936318E0FB790E4A5B01134404331E
:100BD0001B68082B08D1FB790A4A5B0113441B6888
:100BE0001A68FB68D36307E0FB79064A5B0113448C
:100BF0001B681A68FB681364012318461037BD464A
:100C000080BD00BFD000002080B582B000AF034699
:100C1000FB71FB791846FFF76DFE034683F0010375
:100C2000DBB2002B01D000230CE0FB79074A5B010B
:100C3000134414331B88DAB2FB7911461846FFF7C8
:100C4000EFFE034618460837BD4680BDD0000020A1
:100C500080B586B000AF03460A46FB711346BB80E1
:100C6000FB795B011D4A13447B61BA88FB7911460D
:100C70001846FFF755FE0346BB807B691B7E002BA1
:100C800008D07B69DA8A7B69598ABB88CB1A9BB208
:100C90001344BB807B69DB8A1A467B695B8AD31A63
:100CA0003B617B691B8A1A467B699B89D31AFB606F
:100CB0007B699B891946BB887A69528A9B1A1A46B6
:100CC000FB6803FB02F23B69B2FBF3F30B44BB602E
:100CD000BB689BB218461837BD4680BDD0000020C7
:100CE0002DE9F04385B000AF064608463146F9715C
:100CF0000146B980B988002088468146F9791348B1
:100D0000490101440831096800200C46054604FBEE
:100D100009F008FB05F10144A8FB042319440B4624
:100D2000C7E90223C7E90223D7E90201084A4FF0C5
:100D30000003FFF7A5FA02460B46C7E90223BB688A
:100D400018461437BD46BDE8F08300BFD000002030
:100D500040420F0080B500AF084B00229A704FF45C
:100D600080720749074802F0FCF84FF48072064988
:100D7000064802F0F6F80123184680BD1401002051
:100D8000180100206003002018020020A8030020A2
:100D900080B586B000AF0346B9607A60FB7300236C
:100DA0007B61FB7B012B02D0022B0FD020E07B6804
:100DB0009AB26423B968114802F048F80346FB74FC
:100DC000FB7C002B11D17B687B610EE07B689AB2C3
:100DD0006423B9680A4802F039F80346FB74FB7CC7
:100DE000002B04D17B687B6101E000BF00E000BF05
:100DF0007B6918461837BD4680BD00BF60030020E0
:100E0000A80300200EB480B5C7B000AF024607F5B6
:100E10008C73A3F211131A700023C7F8143107F56D
:100E20009473C7F80C3107F10C00D7F80C31D7F8E0
:100E300024214FF4807102F00FFEC7F81001D7F89B
:100E40001031002B0DDDD7F8102107F10C0107F54B
:100E50008C73A3F211131B781846FFF799FFC7F89C
:100E60001401D7F81431184607F58E77BD46BDE852
:100E7000804003B0704780B500AF00F05BFB00F02E
:100E80000FF800F02DF900F0D7F800F0FFF800F0AF
:100E90006FF8FFF7B9FBFFF7D7FB0023184680BDBB
:100EA00080B594B000AF07F120033022002118462E
:100EB00002F0E0FD07F10C0300221A605A609A600C
:100EC000DA601A610023BB60274B1B6C264A43F093
:100ED00080531364244B1B6C03F08053BB60BB68CE
:100EE00000237B60214B1B68204A43F4404313607E
:100EF0001E4B1B6803F440437B607B6802233B620C
:100F00000123FB6210233B630223BB630023FB63CB
:100F100008233B6450237B640223BB640423FB64EB
:100F200007F12003184600F081FE0346002B01D094
:100F300000F058F90F23FB6002233B6100237B6123
:100F40004FF48053BB610023FB6107F10C030221C6
:100F5000184601F0E3F80346002B01D000F042F9F7
:100F600000BF5037BD4680BD0038024000700040D1
:100F700080B58AB000AF07F1200300221A605A60E2
:100F80003B1D00221A605A609A60DA601A615A6149
:100F90009A61274B274A1A60254B4F225A60244BEF
:100FA00000229A60224B44F61F62DA60204B002236
:100FB0001A611F4B00229A611D4801F08FFA034607
:100FC000002B01D000F00EF900233B6200237B626E
:100FD00007F120031946164801F07AFE0346002B5C
:100FE00001D000F0FFF860237B600023BB6000238A
:100FF000FB6000237B613B1D002219460C4801F079
:101000006DFB0346002B01D000F0ECF83B1D0422E1
:101010001946074801F062FB0346002B01D000F09F
:10102000E1F8034800F02EF900BF2837BD4680BD27
:10103000180300200004004080B500AF114B124A95
:101040001A60104B4FF4E1325A600E4B00229A6046
:101050000C4B0022DA600B4B00221A61094B0C2268
:101060005A61084B00229A61064B0022DA6105485A
:1010700001F09CFE0346002B01D000F0B3F800BF46
:1010800080BD00BF600300200010014080B500AFAC
:10109000114B124A1A60104B4FF4E1325A600E4B5A
:1010A00000229A600C4B0022DA600B4B00221A617E
:1010B000094B0C225A61084B00229A61064B002210
:1010C000DA61054801F072FE0346002B01D000F002
:1010D00089F800BF80BD00BFA80300200044004085
:1010E00080B588B000AF07F10C0300221A605A6087
:1010F0009A60DA601A610023BB60364B1B6B354A7D
:1011000043F004031363334B1B6B03F00403BB6016
:10111000BB6800237B602F4B1B6B2E4A43F00103FF
:1011200013632C4B1B6B03F001037B607B68002374
:101130003B60284B1B6B274A43F002031363254B8C
:101140001B6B03F002033B603B6801224FF400512C
:10115000214800F051FD00227821204800F04CFD8C
:101160004FF40053FB6001233B6100237B610023AC
:10117000BB6107F10C031946174800F0B9FB0123C6
:10118000FB6000233B6102237B6107F10C031946DE
:10119000134800F0ADFB7823FB6001233B61002383
:1011A0007B610023BB6107F10C0319460B4800F07B
:1011B0009FFB8023FB6000233B6102237B6107F1DF
:1011C0000C031946054800F093FB00BF2037BD46CD
:1011D00080BD00BF00380240000802400004024009
:1011E0000000024080B400AF72B600BF00BFFDE750
:1011F00080B483B000AF00237B60104B5B6C0F4A60
:1012000043F4804353640D4B5B6C03F480437B6079
:101210007B6800233B60094B1B6C084A43F08053FA
:101220001364064B1B6C03F080533B603B6800BFAC
:101230000C37BD465DF8047B704700BF00380240A4
:1012400080B485B000AF78607B681B680B4A93421E
:101250000DD10023FB600A4B1B6C094A43F00203CB
:101260001364074B1B6C03F00203FB60FB6800BFB9
:101270001437BD465DF8047B704700BF0004004092
:101280000038024080B588B000AF786007F10C03E9
:1012900000221A605A609A60DA601A617B681B68E3
:1012A000124A93421DD10023BB60114B1B6B104AA5
:1012B00043F0010313630E4B1B6B03F00103BB6090
:1012C000BB68C023FB6002233B6100237B610023DA
:1012D000BB610223FB6107F10C031946054800F0CE
:1012E00007FB00BF2037BD4680BD00BF00040040A3
:1012F000003802400000024080B58CB000AF78603A
:1013000007F11C0300221A605A609A60DA601A61C1
:101310007B681B68324A93422DD10023BB61314B5D
:101320005B6C304A43F0100353642E4B5B6C03F04C
:101330001003BB61BB6900237B612A4B1B6B294AED
:1013400043F001031363274B1B6B03F001037B6125
:101350007B694FF4C063FB6102233B6200237B6225
:101360000323BB620723FB6207F11C0319461E48D7
:1013700000F0BEFA30E07B681B681C4A93422BD118
:1013800000233B61174B1B6C164A43F40033136474
:10139000144B1B6C03F400333B613B690023FB607F
:1013A000104B1B6B0F4A43F0010313630D4B1B6B78
:1013B00003F00103FB60FB680C23FB6102233B622B
:1013C00000237B620323BB620723FB6207F11C033C
:1013D0001946054800F08CFA00BF3037BD4680BD85
:1013E000001001400038024000000240004400406C
:1013F00080B400AF00BFFDE780B400AF00BFFDE7E1
:1014000080B400AF00BFFDE780B400AF00BFFDE7D0
:1014100080B400AF00BFFDE780B400AF00BFBD46A1
:101420005DF8047B704780B400AF00BFBD465DF837
:10143000047B704780B400AF00BFBD465DF8047BFD
:10144000704780B500AF00F0C7F800BF80BD000056
:1014500080B586B000AF7860144A154BD31A7B6113
:101460007B693B61134B1B68002B02D1114B124A65
:101470001A60104B1A687B6813443A699A4207D283
:1014800002F000FB03460C221A604FF0FF3309E024
:10149000084B1B68FB60074B1A687B681344054ABE
:1014A0001360FB6818461837BD4680BD0000022057
:1014B00000040000F00300204005002080B400AFCD
:1014C000064BD3F88830054A43F47003C2F88830DD
:1014D00000BFBD465DF8047B704700BF00ED00E033
:1014E000DFF834D0FFF7EAFF0C480D490D4A00231E
:1014F00002E0D458C4500433C4188C42F9D30A4AC9
:101500000A4C002301E013600432A242FBD302F034
:10151000BFFAFFF7B0FC7047000002200000002077
:101520005C000020584400085C00002040050020BA
:10153000FEE7000080B500AF0E4B1B680D4A43F478
:10154000007313600B4B1B680A4A43F480631360FB
:10155000084B1B68074A43F480731360032000F0B4
:101560000DF90F2000F008F8FFF742FE002318469F
:1015700080BD00BF003C024080B582B000AF786003
:10158000124B1A68124B1B7819464FF47A73B3FB4F
:10159000F1F3B2FBF3F3184600F017F90346002B02
:1015A00001D001230EE07B680F2B0AD80022796856
:1015B0004FF0FF3000F0EDF8064A7B68136000231F
:1015C00000E0012318460837BD4680BD000000201A
:1015D000080000200400002080B400AF064B1B78F8
:1015E0001A46064B1B681344044A136000BFBD46ED
:1015F0005DF8047B704700BF08000020F403002062
:1016000080B400AF034B1B681846BD465DF8047BF1
:10161000704700BFF403002080B485B000AF78604D
:101620007B6803F00703FB600C4BDB68BB60BA68A8
:101630004FF6FF031340BB60FB681A02BB681343FD
:1016400043F0BF6343F40033BB60044ABB68D3601C
:1016500000BF1437BD465DF8047B704700ED00E025
:1016600080B400AF044BDB681B0A03F00703184685
:10167000BD465DF8047B704700ED00E080B483B0A8
:1016800000AF03463960FB7197F90730002B0ADB86
:101690003B68DAB20C4997F907301201D2B20B4419
:1016A00083F800230AE03B68DAB20849FB7903F0CB
:1016B0000F03043B1201D2B20B441A7600BF0C3761
:1016C000BD465DF8047B704700E100E000ED00E0FE
:1016D00080B489B000AFF860B9607A60FB6803F04D
:1016E0000703FB61FB69C3F10703042B28BF042335
:1016F000BB61FB690433062B02D9FB69033B00E0A5
:1017000000237B614FF0FF32BB6902FA03F3DA4337
:10171000BB681A407B699A404FF0FF317B6901FA40
:1017200003F3D9437B680B40134318462437BD4667
:101730005DF8047B7047000080B582B000AF786030
:101740007B68013BB3F1807F01D301230FE00A4A9C
:101750007B68013B53600F214FF0FF30FFF78EFF96
:10176000054B00229A60044B07221A60002318469A
:101770000837BD4680BD00BF10E000E080B582B0F4
:1017800000AF78607868FFF747FF00BF0837BD46B5
:1017900080BD80B586B000AF0346B9607A60FB7348
:1017A00000237B61FFF75CFF78617A68B96878692C
:1017B000FFF78EFF024697F90F3011461846FFF7E4
:1017C0005DFF00BF1837BD4680BD80B582B000AF59
:1017D00078607868FFF7B0FF034618460837BD46C3
:1017E00080BD80B586B000AFF860B9607A603B60BC
:1017F0000023FB75FB689B6D3B61FB6893F83430FD
:10180000012B01D1022340E0FB68012283F8342040
:10181000FB6893F83530DBB2012B2FD1FB68022235
:1018200083F83520FB6800225A653B687A68B968FE
:10183000F86800F02EF8FB68DB6D3F229A403B69A8
:101840009A60FB681B681A68FB681B6842F0160206
:101850001A60FB681B6C002B07D0FB681B681A68BA
:10186000FB681B6842F008021A60FB681B681A6874
:10187000FB681B6842F001021A6005E0FB68002269
:1018800083F834200223FB75FB7D18461837BD46CC
:1018900080BD80B485B000AFF860B9607A603B600D
:1018A000FB681B681A68FB681B6822F480221A60B8
:1018B000FB681B683A685A60FB689B68402B08D13C
:1018C000FB681B687A689A60FB681B68BA68DA6014
:1018D00007E0FB681B68BA689A60FB681B687A6857
:1018E000DA6000BF1437BD465DF8047B7047000026
:1018F00080B489B000AF7860396000237B61002339
:101900003B610023BB610023FB6159E10122FB69BC
:1019100002FA03F37B613B681B687A6913403B6101
:101920003A697B699A4240F048813B685B6803F002
:101930000303012B05D03B685B6803F00303022B14
:1019400030D17B689B68BB61FB695B00032202FAB4
:1019500003F3DB43BA691340BB613B68DA68FB6998
:101960005B0002FA03F3BA691343BB617B68BA698F
:101970009A607B685B68BB610122FB6902FA03F332
:10198000DB43BA691340BB613B685B681B0903F02A
:101990000102FB6902FA03F3BA691343BB617B6876
:1019A000BA695A603B685B6803F00303032B17D0E6
:1019B0007B68DB68BB61FB695B00032202FA03F30F
:1019C000DB43BA691340BB613B689A68FB695B0003
:1019D00002FA03F3BA691343BB617B68BA69DA6040
:1019E0003B685B6803F00303022B23D1FB69DA0831
:1019F0007B68083253F82230BB61FB6903F00703B0
:101A00009B000F2202FA03F3DB43BA691340BB6168
:101A10003B681A69FB6903F007039B0002FA03F3B2
:101A2000BA691343BB61FB69DA087B680832B9699C
:101A300043F822107B681B68BB61FB695B000322D3
:101A400002FA03F3DB43BA691340BB613B685B688E
:101A500003F00302FB695B0002FA03F3BA69134364
:101A6000BB617B68BA691A603B685B6803F440330A
:101A7000002B00F0A2800023FB60574B5B6C564AA2
:101A800043F480435364544B5B6C03F48043FB602A
:101A9000FB68524AFB699B08023352F82330BB6152
:101AA000FB6903F003039B000F2202FA03F3DB43FD
:101AB000BA691340BB617B68494A934219D07B687D
:101AC000484A934213D07B68474A93420DD07B68C3
:101AD000464A934207D07B68454A934201D104238A
:101AE00008E0072306E0032304E0022302E00123C9
:101AF00000E00023FA6902F0030292009340BA6901
:101B00001343BB613549FB699B080233BA6941F84D
:101B10002320384B9B68BB613B69DB43BA691340A8
:101B2000BB613B685B6803F48013002B03D0BA6988
:101B30003B691343BB612F4ABB6993602D4BDB6844
:101B4000BB613B69DB43BA691340BB613B685B68BF
:101B500003F40013002B03D0BA693B691343BB6144
:101B6000244ABB69D360234B5B68BB613B69DB43A1
:101B7000BA691340BB613B685B6803F40033002B18
:101B800003D0BA693B691343BB611A4ABB6953600E
:101B9000184B1B68BB613B69DB43BA691340BB61EF
:101BA0003B685B6803F48033002B03D0BA693B6960
:101BB0001343BB610F4ABB691360FB690133FB61CF
:101BC000FB690F2B7FF6A2AE00BF00BF2437BD46D6
:101BD0005DF8047B704700BF0038024000380140C8
:101BE000000002400004024000080240000C0240D5
:101BF00000100240003C014080B483B000AF786028
:101C00000B467B8013467B707B78002B03D07A8851
:101C10007B689A6103E07B881A047B689A6100BF45
:101C20000C37BD465DF8047B7047000080B586B078
:101C300000AF78607B68002B01D1012367E27B68ED
:101C40001B6803F00103002B75D0884B9B6803F0E1
:101C50000C03042B0CD0854B9B6803F00C03082B62
:101C600012D1824B5B6803F48003B3F5800F0BD174
:101C70007E4B1B6803F40033002B5BD07B685B68F2
:101C8000002B57D1012342E27B685B68B3F5803FAC
:101C900006D1764B1B68754A43F4803313601DE010
:101CA0007B685B68B3F5A02F0CD1704B1B686F4A43
:101CB00043F4802313606D4B1B686C4A43F48033FC
:101CC00013600BE0694B1B68684A23F48033136090
:101CD000664B1B68654A23F4802313607B685B684E
:101CE000002B13D0FFF78CFC386108E0FFF788FC6D
:101CF00002463B69D31A642B01D9032307E25B4BED
:101D00001B6803F40033002BF0D014E0FFF778FCDD
:101D1000386108E0FFF774FC02463B69D31A642B74
:101D200001D90323F3E1514B1B6803F40033002B6B
:101D3000F0D100E000BF7B681B6803F00203002BBA
:101D400063D04A4B9B6803F00C03002B0BD0474B2E
:101D50009B6803F00C03082B1CD1444B5B6803F415
:101D60008003002B16D1414B1B6803F00203002BAC
:101D700005D07B68DB68012B01D00123C7E13B4B19
:101D80001B6823F0F8027B681B69DB0037491343AB
:101D90000B603AE07B68DB68002B20D0344B0122DB
:101DA0001A60FFF72DFC386108E0FFF729FC0246B6
:101DB0003B69D31A022B01D90323A8E12B4B1B68E3
:101DC00003F00203002BF0D0284B1B6823F0F8022D
:101DD0007B681B69DB00254913430B6015E0244B2E
:101DE00000221A60FFF70CFC386108E0FFF708FCDE
:101DF00002463B69D31A022B01D9032387E11B4B0F
:101E00001B6803F00203002BF0D17B681B6803F012
:101E10000803002B36D07B685B69002B16D0154B6E
:101E200001221A60FFF7ECFB386108E0FFF7E8FBDE
:101E300002463B69D31A022B01D9032367E10B4BFE
:101E40005B6F03F00203002BF0D01BE0094B002274
:101E50001A60FFF7D5FB38610EE0FFF7D1FB0246B1
:101E60003B69D31A022B07D9032350E10038024003
:101E700000004742800E4742884B5B6F03F002032D
:101E8000002BEAD17B681B6803F00403002B00F0F1
:101E900097800023FB75814B1B6C03F08053002B54
:101EA0000FD10023BB607D4B1B6C7C4A43F08053F9
:101EB00013647A4B1B6C03F08053BB60BB68012337
:101EC000FB75774B1B6803F48073002B18D1744BA0
:101ED0001B68734A43F480731360FFF791FB38610A
:101EE00008E0FFF78DFB02463B69D31A022B01D9AC
:101EF00003230CE16A4B1B6803F48073002BF0D0C2
:101F00007B689B68012B06D1644B1B6F634A43F0CF
:101F1000010313671CE07B689B68052B0CD15F4BAA
:101F20001B6F5E4A43F0040313675C4B1B6F5B4AF5
:101F300043F0010313670BE0584B1B6F574A23F024
:101F400001031367554B1B6F544A23F004031367B7
:101F50007B689B68002B15D0FFF752FB38610AE0C5
:101F6000FFF74EFB02463B69D31A41F28832934297
:101F700001D90323CBE0494B1B6F03F00203002B75
:101F8000EED014E0FFF73CFB38610AE0FFF738FBC6
:101F900002463B69D31A41F28832934201D90323A6
:101FA000B5E03E4B1B6F03F00203002BEED1FB7D2F
:101FB000012B05D1394B1B6C384A23F08053136435
:101FC0007B689B69002B00F0A180344B9B6803F079
:101FD0000C03082B5CD07B689B69022B41D1314BF1
:101FE00000221A60FFF70CFB386108E0FFF708FBDE
:101FF00002463B69D31A022B01D9032387E0274B02
:102000001B6803F00073002BF0D17B68DA697B68F2
:102010001B6A1A437B685B6A9B011A437B689B6A55
:102020005B08013B1B041A437B68DB6A1B061B49E8
:1020300013434B601B4B01221A60FFF7E1FA386132
:1020400008E0FFF7DDFA02463B69D31A022B01D9FB
:1020500003235CE0114B1B6803F00073002BF0D0EE
:1020600054E0104B00221A60FFF7CAFA386108E00A
:10207000FFF7C6FA02463B69D31A022B01D90323A4
:1020800045E0064B1B6803F00073002BF0D13DE0E8
:102090007B689B69012B07D1012338E0003802409F
:1020A00000700040600047421B4B5B68FB607B6830
:1020B0009B69012B28D0FB6803F480027B68DB69F5
:1020C0009A4221D1FB6803F03F027B681B6A9A4267
:1020D0001AD1FA6847F6C07313407A68526A9201BF
:1020E000934211D1FB6803F440327B689B6A5B0822
:1020F000013B1B049A4207D1FB6803F070627B68C6
:10210000DB6A1B069A4201D0012300E00023184637
:102110001837BD4680BD00BF0038024080B584B08E
:1021200000AF786039607B68002B01D10123CCE0DF
:10213000684B1B6803F007033A689A420CD9654B59
:102140003A68D2B21A70634B1B6803F007033A680F
:102150009A4201D00123B8E07B681B6803F00203B8
:10216000002B20D07B681B6803F00403002B05D0F4
:10217000594B9B68584A43F4E05393607B681B6853
:1021800003F00803002B05D0534B9B68524A43F4DD
:1021900060439360504B9B6823F0F0027B689B6820
:1021A0004D4913438B607B681B6803F00103002BD0
:1021B00044D07B685B68012B07D1474B1B6803F455
:1021C0000033002B19D101237FE07B685B68022B71
:1021D00003D07B685B68032B07D13F4B1B6803F080
:1021E0000073002B09D101236FE03B4B1B6803F008
:1021F0000203002B01D1012367E0374B9B6823F0DA
:1022000003027B685B68344913438B60FFF7F8F97E
:10221000F8600AE0FFF7F4F90246FB68D31A41F2CE
:102220008832934201D903234FE02B4B9B6803F084
:102230000C027B685B689B009A42EBD1254B1B68C4
:1022400003F007033A689A420CD2224B3A68D2B2A2
:102250001A70204B1B6803F007033A689A4201D0BA
:10226000012332E07B681B6803F00403002B08D0D5
:10227000194B9B6823F4E0527B68DB6816491343D3
:102280008B607B681B6803F00803002B09D0124B9E
:102290009B6823F460427B681B69DB000E49134393
:1022A0008B6000F021F802460B4B9B681B0903F082
:1022B0000F030A49CB5C22FA03F3094A1360094B66
:1022C0001B681846FFF758F9002318461037BD461B
:1022D00080BD00BF003C024000380240FC430008C3
:1022E00000000020040000202DE9B04F90B000AFA6
:1022F00000237B630023FB6300233B630023BB635A
:10230000594B9B6803F00C03082B0DD0082B00F2EF
:10231000A180002B02D0042B03D09BE0534BBB6366
:102320009BE0534BBB6398E04F4B5B6803F03F036C
:102330007B634D4B5B6803F48003002B28D04A4B32
:102340005B689B0900223B627A623B6AC3F3080028
:102350000021474B03FB01F2002300FB03F313446E
:10236000434AA0FB0212FA620A46BA62FA6A1344AE
:10237000FB627B6B0022BB61FA61D7E90623D7E9D8
:102380000A01FDF77DFF02460B461346FB6353E04F
:10239000354B5B689B0900223B617A613B69C3F363
:1023A000080A4FF0000B52465B464FF000004FF01A
:1023B0000001590141EAD261500102460B46B2EBDD
:1023C0000A0863EB0B094FF000024FF000034FEADD
:1023D000891343EA98634FEA8812B2EB080463EB6F
:1023E00009054FF000024FF00003EB0043EA54737D
:1023F000E20014461D4614EB0A033B6045EB0B0359
:102400007B604FF000024FF00003D7E900452946FA
:102410008B02214643EA915321468A02104619460F
:102420007B6B0022BB60FA60D7E90223FDF728FF2F
:1024300002460B461346FB630B4B5B681B0C03F019
:10244000030301335B003B63FA6B3B6BB2FBF3F3BB
:10245000BB6302E0054BBB6300BFBB6B1846403754
:10246000BD46BDE8B08F00BF003802400024F40034
:1024700040787D0180B400AF034B1B681846BD4611
:102480005DF8047B704700BF0000002080B500AFFE
:10249000FFF7F0FF0246054B9B689B0A03F007031A
:1024A0000349CB5C22FA03F3184680BD0038024092
:1024B0000C44000880B500AFFFF7DCFF0246054B77
:1024C0009B685B0B03F007030349CB5C22FA03F321
:1024D000184680BD003802400C44000880B582B028
:1024E00000AF78607B68002B01D1012341E07B685D
:1024F00093F83D30DBB2002B06D17B68002283F8D5
:102500003C207868FEF79CFE7B68022283F83D2021
:102510007B681A687B6804331946104600F0A0F9FE
:102520007B68012283F846207B68012283F83E20E5
:102530007B68012283F83F207B68012283F84020DA
:102540007B68012283F841207B68012283F84220C6
:102550007B68012283F843207B68012283F84420B2
:102560007B68012283F845207B68012283F83D20A7
:10257000002318460837BD4680BD000080B584B0F2
:1025800000AF786039603B68002B09D17B6893F815
:102590003E30DBB2012B14BF01230023DBB222E06B
:1025A0003B68042B09D17B6893F83F30DBB2012BE9
:1025B00014BF01230023DBB215E03B68082B09D1CF
:1025C0007B6893F84030DBB2012B14BF012300235A
:1025D000DBB208E07B6893F84130DBB2012B14BF1B
:1025E00001230023DBB2002B01D0012368E03B680C
:1025F000002B04D17B68022283F83E2013E03B6865
:10260000042B04D17B68022283F83F200BE03B6857
:10261000082B04D17B68022283F8402003E07B680A
:10262000022283F841207B681B6801223968184622
:1026300000F028FB7B681B68234A934207D17B6824
:102640001B685A6C7B681B6842F400425A647B68C2
:102650001B681D4A934218D07B681B68B3F1804FFA
:1026600013D07B681B68194A93420ED07B681B68A5
:10267000174A934209D07B681B68164A934204D0DC
:102680007B681B68144A934211D17B681B689B6866
:1026900003F00703FB60FB68062B10D07B681B6808
:1026A0001A687B681B6842F001021A6007E07B68C9
:1026B0001B681A687B681B6842F001021A600023DD
:1026C00018461037BD4680BD0000014000040040A0
:1026D00000080040000C00400040014080B586B07A
:1026E00000AFF860B9607A600023FB75FB6893F86F
:1026F0003C30012B01D10223AEE0FB68012283F8BC
:102700003C207B680C2B00F29F8001A252F823F042
:1027100045270008492800084928000849280008DA
:10272000852700084928000849280008492800088A
:10273000C727000849280008492800084928000838
:1027400007280008FB681B68B968184600F00EF9F6
:10275000FB681B689A69FB681B6842F008029A6173
:10276000FB681B689A69FB681B6822F004029A6187
:10277000FB681B689969BB681A69FB681B680A4398
:102780009A6164E0FB681B68B968184600F054F968
:10279000FB681B689A69FB681B6842F400629A61D7
:1027A000FB681B689A69FB681B6822F480629A6167
:1027B000FB681B689969BB681B691A02FB681B6888
:1027C0000A439A6143E0FB681B68B968184600F049
:1027D0009FF9FB681B68DA69FB681B6842F0080216
:1027E000DA61FB681B68DA69FB681B6822F0040287
:1027F000DA61FB681B68D969BB681A69FB681B68EA
:102800000A43DA6123E0FB681B68B968184600F0E8
:10281000E9F9FB681B68DA69FB681B6842F400622F
:10282000DA61FB681B68DA69FB681B6822F4806266
:10283000DA61FB681B68D969BB681B691A02FB680F
:102840001B680A43DA6102E00123FB7500BFFB68E5
:10285000002283F83C20FB7D18461837BD4680BD1A
:1028600080B485B000AF786039607B681B68FB601E
:102870007B68374A93420FD07B68B3F1804F0BD00F
:102880007B68344A934207D07B68334A934203D033
:102890007B68324A934208D1FB6823F07003FB60E7
:1028A0003B685B68FA681343FB607B68284A934285
:1028B0001BD07B68B3F1804F17D07B68254A9342C9
:1028C00013D07B68244A93420FD07B68234A9342FB
:1028D0000BD07B68224A934207D07B68214A9342FF
:1028E00003D07B68204A934208D1FB6823F44073ED
:1028F000FB603B68DB68FA681343FB60FB6823F00E
:1029000080023B685B691343FB603B689A687B68A5
:10291000DA623B681A687B689A627B680C4A934269
:1029200003D13B681A697B681A637B681B6843F0B4
:1029300004027B681A607B6801225A617B68FA682E
:102940001A6000BF1437BD465DF8047B704700BFB6
:10295000000001400004004000080040000C00405E
:1029600000400140004401400048014080B487B06D
:1029700000AF786039607B681B6A7B617B681B6A8B
:1029800023F001027B681A627B685B683B617B68AD
:102990009B69FB60FB6823F07003FB60FB6823F01E
:1029A0000303FB603B681B68FA681343FB607B69A9
:1029B00023F002037B613B689B687A6913437B6168
:1029C0007B681C4A93420CD17B6923F008037B612E
:1029D0003B68DB687A6913437B617B6923F00403FE
:1029E0007B617B68134A934211D13B6923F4807366
:1029F0003B613B6923F400733B613B685B693A6967
:102A000013433B613B689B693A6913433B617B68B5
:102A10003A695A607B68FA689A613B685A687B68D1
:102A20005A637B687A691A6200BF1C37BD465DF83D
:102A3000047B70470000014080B487B000AF78602D
:102A400039607B681B6A7B617B681B6A23F010021C
:102A50007B681A627B685B683B617B689B69FB6093
:102A6000FB6823F4E043FB60FB6823F44073FB60E6
:102A70003B681B681B02FA681343FB607B6923F009
:102A800020037B613B689B681B017A6913437B6170
:102A90007B681E4A93420DD17B6923F080037B61E2
:102AA0003B68DB681B017A6913437B617B6923F018
:102AB00040037B617B68154A934213D13B6923F441
:102AC00080633B613B6923F400633B613B685B6966
:102AD0009B003A6913433B613B689B699B003A69E1
:102AE00013433B617B683A695A607B68FA689A6174
:102AF0003B685A687B689A637B687A691A6200BF90
:102B00001C37BD465DF8047B704700BF00000140E4
:102B100080B487B000AF786039607B681B6A7B61E6
:102B20007B681B6A23F480727B681A627B685B682F
:102B30003B617B68DB69FB60FB6823F07003FB6033
:102B4000FB6823F00303FB603B681B68FA681343D0
:102B5000FB607B6923F400737B613B689B681B020D
:102B60007A6913437B617B681D4A93420DD17B696F
:102B700023F400637B613B68DB681B027A691343C3
:102B80007B617B6923F480637B617B68144A934299
:102B900013D13B6923F480533B613B6923F4005319
:102BA0003B613B685B691B013A6913433B613B68CE
:102BB0009B691B013A6913433B617B683A695A6020
:102BC0007B68FA68DA613B685A687B68DA637B681D
:102BD0007A691A6200BF1C37BD465DF8047B7047F6
:102BE0000000014080B487B000AF786039607B6836
:102BF0001B6A3B617B681B6A23F480527B681A6204
:102C00007B685B687B617B68DB69FB60FB6823F446
:102C1000E043FB60FB6823F44073FB603B681B6888
:102C20001B02FA681343FB603B6923F400533B61CA
:102C30003B689B681B033A6913433B617B68104AFE
:102C4000934209D17B6923F480437B613B685B69D4
:102C50009B017A6913437B617B687A695A607B6860
:102C6000FA68DA613B685A687B681A647B683A697B
:102C70001A6200BF1C37BD465DF8047B704700BF79
:102C80000000014080B487B000AFF860B9607A609E
:102C9000BB6803F01F03012202FA03F37B61FB68A8
:102CA0001A6A7B69DB431A40FB681A62FB681A6A7E
:102CB000BB6803F01F03796801FA03F31A43FB684A
:102CC0001A6200BF1C37BD465DF8047B70470000E8
:102CD00080B485B000AF786039607B6893F83C3091
:102CE000012B01D1022350E07B68012283F83C20B4
:102CF0007B68022283F83D207B681B685B68FB6071
:102D00007B681B689B68BB60FB6823F07003FB60FB
:102D10003B681B68FA681343FB607B681B68FA68B2
:102D20005A607B681B681C4A934218D07B681B68FA
:102D3000B3F1804F13D07B681B68184A93420ED0C2
:102D40007B681B68164A934209D07B681B68154A4A
:102D5000934204D07B681B68134A93420CD1BB6832
:102D600023F08003BB603B685B68BA681343BB60B9
:102D70007B681B68BA689A607B68012283F83D20F3
:102D80007B68002283F83C20002318461437BD4698
:102D90005DF8047B704700BF000001400004004064
:102DA00000080040000C00400040014080B582B0A7
:102DB00000AF78607B68002B01D1012342E07B6883
:102DC00093F84130DBB2002B06D17B68002283F8F8
:102DD00040207868FEF790FA7B68242283F841202F
:102DE0007B681B68DA687B681B6822F40052DA6033
:102DF000786800F08FFB7B681B681A697B681B682A
:102E000022F490421A617B681B685A697B681B68D0
:102E100022F02A025A617B681B68DA687B681B68AB
:102E200042F40052DA607B6800225A647B682022F8
:102E300083F841207B68202283F842207B680022AF
:102E40005A63002318460837BD4680BD80B58AB056
:102E500002AFF860B9603B601346FB8000237B61E2
:102E6000FB6893F84130DBB2202B75D1BB68002B97
:102E700002D0FB88002B01D101236EE0FB68002209
:102E80005A64FB68212283F84120FEF7B9FB786180
:102E9000FB68FA889A84FB68FA88DA84FB689B6886
:102EA000B3F5805F08D1FB681B69002B04D10023B8
:102EB000FB61BB68BB6103E0BB68FB610023BB61D6
:102EC0002EE03B6800937B6900228021F86800F0C7
:102ED00095F90346002B05D0FB68202283F841209A
:102EE00003233AE0FB69002B0BD1BB691B881A4610
:102EF000FB681B68C2F308025A60BB690233BB61FE
:102F000007E0FB691A78FB681B685A60FB690133AC
:102F1000FB61FB68DB8C9BB2013B9AB2FB68DA84F5
:102F2000FB68DB8C9BB2002BCBD13B6800937B69A9
:102F300000224021F86800F061F90346002B05D01B
:102F4000FB68202283F84120032306E0FB6820224F
:102F500083F84120002300E0022318462037BD46B5
:102F600080BD80B584B000AFF860B9601346FB80C7
:102F7000FB6893F84230DBB2202B12D1BB68002BE8
:102F800002D0FB88002B01D101230BE0FB6800225B
:102F90001A63FB881A46B968F86800F089F9034695
:102FA00000E0022318461037BD4680BD80B483B0D0
:102FB00000AF786000BF0C37BD465DF8047B7047FA
:102FC00080B483B000AF786000BF0C37BD465DF8B9
:102FD000047B704780B483B000AF786000BF0C37CB
:102FE000BD465DF8047B704780B483B000AF786065
:102FF0000B467B8000BF0C37BD465DF8047B7047F5
:1030000080B59CB000AF78607B689B6BFB667B688B
:103010001B681B6803F48073002B72D1FB6E0022C7
:10302000DA85FB6E1B680C33FB64FB6C53E8003FD6
:10303000BB64BB6C23F48073BB66FB6E1B680C33F4
:10304000BA6EBA657B65796DBA6D41E800233B6560
:103050003B6D002BE5D1FB6E1B681433BB63BB6B70
:1030600053E8003F7B637B6B23F001037B66FB6EC1
:103070001B6814337A6E7A643B64396C7A6C41E86D
:103080000023FB63FB6B002BE5D1FB6E1B68143345
:103090007B627B6A53E8003F3B623B6A23F040035C
:1030A0003B66FB6E1B6814333A6E3A63FB62F96A47
:1030B0003A6B41E80023BB62BB6A002BE5D1FB6E93
:1030C000202283F84220FB6E1B6B012B19D1FB6E73
:1030D0001B680C333B613B6953E8003FFB60FB68B6
:1030E00023F01003FB65FB6E1B680C33FA6DFA616D
:1030F000BB61B969FA6941E800237B617B69002BF8
:10310000E5D1FB6E00225A63FB6E1B6B012B06D1CF
:10311000FB6E9B8D1946F86EFFF766FF02E0F86EB6
:10312000FFF744FF00BF7037BD4680BD80B584B057
:1031300000AF78607B689B6BFB60FB6801225A6381
:10314000FB681B6B012B08D1FB689B8D5B089BB256
:103150001946F868FFF748FF02E0F868FFF730FF0C
:1031600000BF1037BD4680BD80B584B000AF786029
:103170000023FB607B689B6BBB60BB681B685B6963
:1031800003F08003802B0CBF01230023DBB2FB6024
:10319000BB6893F84130DBB2212B08D1FB68002BD0
:1031A00005D0BB680022DA84B86800F027F9BB6854
:1031B0001B685B6903F04003402B0CBF0123002315
:1031C000DBB2FB60BB6893F84230DBB2222B08D144
:1031D000FB68002B05D0BB680022DA85B86800F0D8
:1031E00035F9BB685B6C43F01002BB685A64B86881
:1031F000FFF7F0FE00BF1037BD4680BD80B586B03A
:1032000000AFF860B9603B601346FB713BE03B6A7E
:10321000B3F1FF3F37D0FEF7F3F902463B68D31A0C
:103220003A6A9A4202D33B6A002B01D103233AE067
:10323000FB681B68DB6803F00403002B23D0BB682A
:10324000802B20D0BB68402B1DD0FB681B681B68FF
:1032500003F00803082B16D100237B61FB681B6871
:103260001B687B61FB681B685B687B617B69F86836
:1032700000F0ECF8FB6808225A64FB68002283F82F
:10328000402001230FE0FB681B681A68BB681340ED
:10329000BA689A420CBF01230023DBB21A46FB79BD
:1032A0009A42B4D0002318461837BD4680BD0000AE
:1032B00080B598B000AFF860B9601346FB80BA687B
:1032C000FB689A62FB68FA889A85FB6800225A6458
:1032D000FB68222283F84220FB68DB6B444ADA63F6
:1032E000FB68DB6B434A1A64FB68DB6B424ADA64B7
:1032F000FB68DB6B00221A6507F10803FB65FB68BE
:10330000D86BFB681B6804331946FB6D1A68FB8891
:10331000FEF767FA0346002B08D0FB6810225A64B8
:10332000FB68202283F8422001235DE000233B61FB
:10333000FB681B681B683B61FB681B685B683B6143
:103340003B69FB681B69002B19D0FB681B680C33B9
:103350003B643B6C53E8003FFB63FB6B43F48073BF
:10336000BB65FB681B680C33BA6DFA64BB64B96C4F
:10337000FA6C41E800237B647B6C002BE5D1FB6891
:103380001B681433FB62FB6A53E8003FBB62BB6AF5
:1033900043F001037B65FB681B6814337A6DBA63E5
:1033A0007B63796BBA6B41E800233B633B6B002B7B
:1033B000E5D1FB681B681433BB61BB6953E8003F70
:1033C0007B617B6943F040033B65FB681B681433FA
:1033D0003A6D7A623B62396A7A6A41E80023FB619E
:1033E000FB69002BE5D1002318466037BD4680BD40
:1033F000013000082D3100086931000880B489B01F
:1034000000AF78607B681B680C33FB60FB6853E897
:10341000003FBB60BB6823F0C003FB617B681B6897
:103420000C33FA69BA617B617969BA6941E80023B2
:103430003B613B69002BE5D17B68202283F841206A
:1034400000BF2437BD465DF8047B704780B495B05B
:1034500000AF78607B681B680C337B637B6B53E841
:10346000003F3B633B6B23F49073FB647B681B68FA
:103470000C33FA6C3A64FB63F96B3A6C41E8002355
:10348000BB63BB6B002BE5D17B681B6814333B62CD
:103490003B6A53E8003FFB61FB6923F00103BB6417
:1034A0007B681B681433BA6CFA62BB62B96AFA6A49
:1034B00041E800237B627B6A002BE5D17B681B6BB4
:1034C000012B19D17B681B680C33FB60FB6853E848
:1034D000003FBB60BB6823F010037B647B681B6804
:1034E0000C337A6CBA617B617969BA6941E800236F
:1034F0003B613B69002BE5D17B68202283F84220A9
:103500007B6800221A6300BF5437BD465DF8047B18
:10351000704700002DE9B04FC0B000AFC7F8F4000D
:10352000D7F8F4301B681B6923F44050D7F8F43007
:10353000D968D7F8F4301A6840EA01031361D7F864
:10354000F4309A68D7F8F4301B691A43D7F8F4308E
:103550005B691A43D7F8F430DB691343C7F8F830D6
:10356000D7F8F4301B68DB6823F4164121F00C0116
:10357000D7F8F4301A68D7F8F8300B43D360D7F88F
:10358000F4301B685B6923F44070D7F8F430996914
:10359000D7F8F4301A6840EA01035361D7F8F430E1
:1035A0001A688F4B9A4205D0D7F8F4301A688D4BC1
:1035B0009A4204D1FEF77EFFC7F8FC0003E0FEF755
:1035C00065FFC7F8FC00D7F8F430DB69B3F5004FAE
:1035D00040F00C81D7F8FC300022C7F8E830C7F87B
:1035E000EC20D7E93A4522462B469118B9655B4154
:1035F000FB65D7E91623214612EB0108294643EB68
:1036000001094FF000024FF000034FEAC90343EAFB
:1036100058734FEAC80290469946234618EB0303B5
:10362000C7F8E0302B4649EB0303C7F8E430D7F87E
:10363000F4305B680022C7F8D830C7F8DC20D7E93F
:1036400036120B46DB183B65134642EB03037B65E2
:10365000D7E91423D7E93801FCF712FE02460B46DE
:10366000614BA3FB02235B091C01D7F8FC3000224D
:10367000C7F8D030C7F8D420D7E9348942464B4642
:103680009118B9645B41FB64D7E91223414612EB00
:10369000010A494643EB010B4FF000024FF00003D3
:1036A0004FEACB0343EA5A734FEACA0292469B465B
:1036B00043461AEB0303C7F8C8304B464BEB0303F2
:1036C000C7F8CC30D7F8F4305B680022C7F8C030B8
:1036D000C7F8C420D7E930120B46DB183B64134609
:1036E00042EB03037B64D7E91023D7E93201FCF7EF
:1036F000C7FD02460B4611463B4BA3FB01235B096A
:10370000642202FB03F3CB1ADB0003F13202364BD7
:10371000A3FB02235B095B0003F4F8731C44D7F896
:10372000FC300022C7F8B830C7F8BC20D7E92E8992
:1037300042464B469118B9635B41FB63D7E90E23C0
:1037400041465118396349464B417B634FF00002B3
:103750004FF00003D7E90CAB5946CB00514643EA82
:1037600051735146CA0010461946034642469B18FB
:10377000C7F8B0304B460A4642EB0303C7F8B430F3
:10378000D7F8F4305B680022C7F8A830C7F8AC203F
:10379000D7E92A120B46DB18BB62134642EB030340
:1037A000FB62D7E90A23D7E92C01FCF769FD024641
:1037B0000B460D4BA3FB02135B09642101FB03F3D2
:1037C000D31ADB003233084AA2FB03235B0903F060
:1037D0000702D7F8F4301B6822449A6006E100BF64
:1037E00000100140001401401F85EB51D7F8FC3058
:1037F0000022C7F8A030C7F8A420D7E9288942469C
:103800004B46911839625B417B62D7E908234146F8
:103810005418494643EB01054FF000024FF00003F6
:10382000EB0043EA5473E20014461D464346E31896
:10383000C7F898304B4645EB0303C7F89C30D7F8E0
:10384000F4305B680022C7F89030C7F894204FF03E
:1038500000024FF00003D7E9244529468B0021469A
:1038600043EA917321468A00D7E92601FCF708FD57
:1038700002460B46604BA3FB02235B091C01D7F8F1
:10388000FC300022C7F88830C7F88C20D7E922899D
:1038900042464B469118B9615B41FB61D7E906236B
:1038A00041465118396149464B417B614FF0000256
:1038B0004FF00003D7E904AB5946CB00514643EA29
:1038C00051735146CA0010461946034642469B189A
:1038D000C7F880304B460A4642EB0303C7F88430F2
:1038E000D7F8F4305B680022BB67FA674FF000023C
:1038F0004FF00003D7E91E8949468B00414643EA51
:10390000917341468A00D7E92001FCF7B9FC0246D1
:103910000B461146384BA3FB01235B09642202FBD3
:1039200003F3CB1A1B013233334AA2FB03235B0997
:1039300003F0F0031C44D7F8FC3000223B677A67A1
:10394000D7E91C8942464B469118B9605B41FB6040
:10395000D7E9022341465118396049464B417B6003
:103960004FF000024FF00003D7E900AB5946CB00FF
:10397000514643EA51735146CA0010461946034660
:1039800042469B18BB664B460A4642EB0303FB6666
:10399000D7F8F4305B6800223B667A664FF000028D
:1039A0004FF00003D7E9188949468B00414643EAA6
:1039B000917341468A00D7E91A01FCF761FC02467F
:1039C0000B460D4BA3FB02135B09642101FB03F3C0
:1039D000D31A1B013233084AA2FB03235B0903F00D
:1039E0000F02D7F8F4301B6822449A6000BF07F535
:1039F0008077BD46BDE8B08F1F85EB5130B51446CA
:103A0000002C9BB005461A4605DA8B2303604FF065
:103A1000FF301BB030BD4FF40273ADF80C304FF0E7
:103A20000003199314BF04F1FF3323460293059357
:103A30004FF6FF7300910491ADF80E3069461E9B5E
:103A400000F0A0F9431CBCBF8B232B60002CE0D0FE
:103A5000009B00221A70DCE707B5009313460A4664
:103A6000014603480068FFF7C9FF03B05DF804FB97
:103A70000C00002002440346934200D1704703F833
:103A8000011BF9E7014B1868704700BF0C000020CC
:103A900070B50D4D0D4C641BA4100026A64209D133
:103AA0000B4D0C4C00F064FC641BA4100026A642D5
:103AB00005D170BD55F8043B98470136EEE755F83F
:103AC000043B98470136F2E7504400085044000890
:103AD00050440008544400087047704738B5054604
:103AE000002941D051F8043C0C1F002BB8BFE4184A
:103AF00000F0E0F81D4A136833B96360146028468B
:103B0000BDE8384000F0DCB8A34208D9206821188D
:103B10008B4201BF19685B6809182160EDE71A46FE
:103B20005B680BB1A342FAD911685018A0420BD1BF
:103B300020680144501883421160E0D118685B6826
:103B4000536008441060DAE702D90C232B60D6E7F3
:103B5000206821188B4204BF19685B68636004BF4A
:103B6000091821605460CAE738BD00BF3C05002039
:103B700070B50F4E0C463168054611B900F0A4FB34
:103B800030602146284600F09FFB431C03D14FF0D4
:103B9000FF34204670BDC41C24F00304A042F8D0BA
:103BA000211A284600F090FB0130F2D1EFE700BF68
:103BB000380500202DE9F843CD1C25F00305083514
:103BC0000C2D38BF0C25002D064601DBA94204D977
:103BD0000C2333600020BDE8F883DFF8D48000F0C8
:103BE00069F8D8F800301C4644BB29463046FFF738
:103BF000BFFF431C044658D1D8F800402746002F89
:103C000043D1002C4BD023683946304604EB0309DE
:103C100000F05AFB814542D121686D1A2946304691
:103C2000FFF7A6FF01303AD023682B442360D8F871
:103C300000305A6862BBC8F800700FE02268521B5F
:103C400020D40B2A17D96119A342256018BF5960E7
:103C5000636808BFC8F8001062514B60304600F03E
:103C60002FF804F10B00231D20F00700C21A1CBF1F
:103C70001B1AA350AFE76268A3420CBFC8F800202C
:103C80005A60EBE723466468AEE73C467F68B6E7D8
:103C90001A465B68A342FBD100235360DEE70C2386
:103CA0003360304600F00CF894E70560D6E700BFBB
:103CB0003C0500200148FFF70FBF00BF340500207E
:103CC0000148FFF70ABF00BF340500202DE9F04787
:103CD0008E681F46BE420B6882460C4690462DD821
:103CE000B1F90C2012F4906F26D06569096905EBD3
:103CF0004505A3EB010905EBD5757B1C4B446D1005
:103D00009D4238BF1D46530527D52946FFF752FF70
:103D1000064660B321694A4600F0E6FAA38923F417
:103D2000906343F08003A381266165614E44A5EB57
:103D300009052660A5603E46BE4200D93E46206881
:103D40003246414600F0A6FAA3689B1BA360236895
:103D5000334423600020BDE8F0872A4600F0D2FA01
:103D600006460028E0D121695046FFF7B7FE0C2334
:103D7000CAF80030A38943F04003A3814FF0FF301D
:103D8000E9E700002DE9F04F98468B891B069DB0AE
:103D900007460D46144610D50B6973B94021FFF74D
:103DA00009FF2860286130B90C233B604FF0FF30D9
:103DB0001DB0BDE8F08F40236B61002309932023E1
:103DC0008DF82930CDF80C803023DFF89C818DF8F8
:103DD0002A304FF0010923469A4613F8012B0AB105
:103DE000252AF9D1BAEB040B0BD05B4622462946B3
:103DF0003846FFF76BFF013000F0A780099A5A445C
:103E000009929AF80030002B00F09F8000234FF0B9
:103E1000FF32CDE905230AF1010A049307938DF8D7
:103E200053301A935446052214F8011B4E48FCF7F0
:103E3000D7F9049AD8B9D00644BF20238DF853305F
:103E4000110744BF2B238DF853309AF800302A2BEA
:103E500015D0079A544600204FF00A0C214611F85D
:103E6000013B303B092B4BD9B0B1079214E0A0EBDA
:103E7000080309FA03F313430493A246D2E7039B12
:103E8000191D1B680391002BBBBF5B4242F002026D
:103E900007930793B8BF049223782E2B0AD1637837
:103EA0002A2B32D1039B1A1D1B68039243EAE3734A
:103EB00002340593DFF8C0A0217803225046FCF7B6
:103EC0008FF938B1049BA0EB0A00402282401343D3
:103ED0000134049314F8011B24488DF8281006229D
:103EE000FCF77EF9002836D0214B1BBB039B073320
:103EF00023F0070308330393099B334409936AE7CC
:103F00000CFB02320C460120A8E700230134059384
:103F100019464FF00A0C204610F8012B303A092AB6
:103F200003D9002BC6D00591C4E70CFB0121044640
:103F30000123F0E703AB00932A460E4B04A9384651
:103F4000AFF30080421C0646D6D1AB895B063FF535
:103F50002DAF09982CE703AB00932A46054B04A923
:103F6000384600F079F8EDE7144400081E440008D4
:103F700000000000CD3C00081A4400082DE9F0477D
:103F8000164698468A680B69DDF820909342B8BFC0
:103F90001346336091F8432007460C460AB10133BB
:103FA00033602368990642BF336802333360256863
:103FB00015F0060506D104F1190AE36832689B1A68
:103FC000AB4226DC94F843302268003B18BF012343
:103FD00092062BD404F1430241463846C8470130CB
:103FE0001ED02368226903F00603042B02BFE56894
:103FF0003368ED1AA3680CBF25EAE57500259342E6
:10400000C4BF9B1AED1800261A34B5421AD10020FD
:1040100008E00123524641463846C847013003D1E3
:104020004FF0FF30BDE8F0870135C6E7E1185A1CB4
:10403000302081F84300224494F8451082F8431060
:104040000233C7E70123224641463846C8470130BC
:10405000E6D00136D9E700002DE9FF470F7E0C9E20
:10406000782F914680460C469A4601F1430207D8C4
:10407000622F0AD8002F00F0D180582F00F0B880AE
:1040800004F1420684F842703AE0A7F16303152B6D
:10409000F6D801A151F823F0F140000805410008CD
:1040A00081400008814000088140000881400008EC
:1040B0000541000881400008814000088140000857
:1040C00081400008034200082F410008BD4100085C
:1040D0008140000881400008254200088140000816
:1040E0002F4100088140000881400008C5410008B8
:1040F00033681A1D1B68326004F1420684F84230AE
:1041000001239CE033682068191D3160060601D543
:104110001D6803E04506FBD5B3F90050002D03DA16
:104120002D236D4284F8433058480A2311E021685A
:104130003368080653F8045B02D4490648BFADB2A1
:104140006F2F5248336014BF0A230823002184F8DC
:1041500043106668A660002E05DB21682E4321F01F
:10416000040121604BD01646B5FBF3F103FB115758
:10417000C75D06F8017D2F46BB420D46F4D9082BDA
:104180000BD12368DF0708D5236961689942DEBF38
:10419000302306F8013C06F1FF36921B2261CDF870
:1041A00000A04B4603AA21464046FFF7E7FE013038
:1041B0004AD14FF0FF3004B0BDE8F087236843F0E8
:1041C000200323603248782784F8457023683168DB
:1041D0001F0651F8045B02D45F0648BFADB23160E0
:1041E000D90744BF43F0200323601DB11023ADE77E
:1041F0002648E9E7236823F020032360F6E7164604
:10420000BDE7336825686169181D30602E061B689C
:1042100001D5196002E06806FBD5198000232361EF
:104220001646BCE733681A1D32601E6862680021BA
:104230003046FBF7D5FF08B1801B606063682361DF
:10424000002384F84330AAE72369324649464046B2
:10425000D0470130ADD023689B0713D4E068039B9F
:104260009842B8BF1846A6E7012332464946404661
:10427000D04701309DD00135E36803995B1AAB420A
:10428000F2DCEBE7002504F11906F5E72544000808
:1042900036440008884210B501EB020402D984427A
:1042A000234607D8431EA14208D011F8012B03F87A
:1042B000012FF8E7024401468A4200D110BD13F8ED
:1042C000014D02F8014DF7E738B5064D00230446CD
:1042D00008462B60FDF7BCF8431C02D12B6803B1E4
:1042E000236038BD300500200A44914200F1FF33BD
:1042F00000D1704710B511F8014B03F8014F9142FE
:10430000F9D110BD2DE9F041074614460D4621B9FB
:10431000BDE8F0411146FFF74DBC2AB9FFF7DEFBBF
:1043200025462846BDE8F08100F01AF8844206468A
:1043300002D8B4EB500FF4D821463846FFF73AFCC8
:10434000804608B94546ECE7B4422246294628BFD4
:104350003246FFF7C9FF29463846FFF7BFFBF1E7B2
:1043600051F8043C181F002BBCBF0B58C0187047F5
:10437000F8B500BFF8BC08BC9E467047F8B500BF52
:08438000F8BC08BC9E46704722
:1043880031323300000402400800010000040240FA
:104398001000010000040240200000000004024058
:1043A8004000010000080240002000000000024018
:1043B80001000100000402408000010018030020F1
:1043C8000000000040420F00F401DC05C4090000B1
:1043D8005A00B40001000000180300200400000087
:1043E80040420F00F401DC05C40900005A00B40083
:1043F80001000000000000000000000001020304AA
:10440800060708090000000001020304232D302BD1
:104418002000686C4C0065666745464700303132BD
:104428003334353637383941424344454600303114
:104438003233343536373839616263646566000073
:0844480098BDFF7F0100000098
:04445000C50100089A
:04445400A1010008BA
:104458000024F400100000000100000010000020FB
:1044680000000000F803002060040020C8040020B9
:104478000000000000000000000000000000000034
:104488000000000000000000000000000000000024
:104498000000000000000000000000000000000014
:0C44A80000000000000000000000000008
:04000005080014E1FA
:00000001FF
